{
  "contractName": "Meli",
  "abi": [
    {
      "inputs": [
        {
          "internalType": "address",
          "name": "_token",
          "type": "address"
        }
      ],
      "stateMutability": "nonpayable",
      "type": "constructor"
    },
    {
      "anonymous": false,
      "inputs": [
        {
          "indexed": true,
          "internalType": "address",
          "name": "owner",
          "type": "address"
        },
        {
          "indexed": false,
          "internalType": "string",
          "name": "name",
          "type": "string"
        },
        {
          "indexed": false,
          "internalType": "uint256",
          "name": "price",
          "type": "uint256"
        }
      ],
      "name": "ProductAdded",
      "type": "event"
    },
    {
      "anonymous": false,
      "inputs": [
        {
          "indexed": true,
          "internalType": "address",
          "name": "user",
          "type": "address"
        },
        {
          "indexed": false,
          "internalType": "address",
          "name": "owner",
          "type": "address"
        },
        {
          "indexed": false,
          "internalType": "uint256",
          "name": "price",
          "type": "uint256"
        }
      ],
      "name": "ProductPurchased",
      "type": "event"
    },
    {
      "inputs": [],
      "name": "owner",
      "outputs": [
        {
          "internalType": "address",
          "name": "",
          "type": "address"
        }
      ],
      "stateMutability": "view",
      "type": "function"
    },
    {
      "inputs": [
        {
          "internalType": "address",
          "name": "",
          "type": "address"
        }
      ],
      "name": "users",
      "outputs": [
        {
          "internalType": "string",
          "name": "name",
          "type": "string"
        },
        {
          "internalType": "string",
          "name": "contact",
          "type": "string"
        },
        {
          "internalType": "bool",
          "name": "updated",
          "type": "bool"
        },
        {
          "internalType": "uint256",
          "name": "total_product",
          "type": "uint256"
        }
      ],
      "stateMutability": "view",
      "type": "function"
    },
    {
      "inputs": [
        {
          "internalType": "uint256",
          "name": "percent",
          "type": "uint256"
        }
      ],
      "name": "setSecureAddPercent",
      "outputs": [],
      "stateMutability": "nonpayable",
      "type": "function"
    },
    {
      "inputs": [
        {
          "internalType": "uint256",
          "name": "_amount",
          "type": "uint256"
        }
      ],
      "name": "__percentValue",
      "outputs": [
        {
          "internalType": "uint256",
          "name": "",
          "type": "uint256"
        }
      ],
      "stateMutability": "view",
      "type": "function"
    },
    {
      "inputs": [
        {
          "internalType": "string",
          "name": "name",
          "type": "string"
        },
        {
          "internalType": "string",
          "name": "desc",
          "type": "string"
        },
        {
          "internalType": "string",
          "name": "section",
          "type": "string"
        },
        {
          "internalType": "uint256",
          "name": "price",
          "type": "uint256"
        }
      ],
      "name": "AddProduct",
      "outputs": [],
      "stateMutability": "nonpayable",
      "type": "function"
    }
  ],
  "bytecode": "0x608060405260056001556000600260006101000a81548173ffffffffffffffffffffffffffffffffffffffff021916908373ffffffffffffffffffffffffffffffffffffffff16021790555034801561005757600080fd5b50604051610d09380380610d098339818101604052810190610079919061011d565b336000806101000a81548173ffffffffffffffffffffffffffffffffffffffff021916908373ffffffffffffffffffffffffffffffffffffffff16021790555080600360006101000a81548173ffffffffffffffffffffffffffffffffffffffff021916908373ffffffffffffffffffffffffffffffffffffffff16021790555060006006819055505061018f565b60008151905061011781610178565b92915050565b60006020828403121561012f57600080fd5b600061013d84828501610108565b91505092915050565b600061015182610158565b9050919050565b600073ffffffffffffffffffffffffffffffffffffffff82169050919050565b61018181610146565b811461018c57600080fd5b50565b610b6b8061019e6000396000f3fe608060405234801561001057600080fd5b50600436106100575760003560e01c80631c8177961461005c5780635d6b601d146100785780638da5cb5b146100a8578063a87430ba146100c6578063d43ca177146100f9575b600080fd5b61007660048036038101906100719190610683565b610115565b005b610092600480360381019061008d919061072e565b610312565b60405161009f919061085b565b60405180910390f35b6100b0610335565b6040516100bd91906107bd565b60405180910390f35b6100e060048036038101906100db919061065a565b610359565b6040516100f094939291906107d8565b60405180910390f35b610113600480360381019061010e919061072e565b6104a6565b005b60046040518060c0016040528086815260200185815260200184815260200161013d84610508565b81526020013373ffffffffffffffffffffffffffffffffffffffff168152602001600260009054906101000a900473ffffffffffffffffffffffffffffffffffffffff1673ffffffffffffffffffffffffffffffffffffffff16815250908060018154018082558091505060019003906000526020600020906006020160009091909190915060008201518160000190805190602001906101df929190610525565b5060208201518160010190805190602001906101fc929190610525565b506040820151816002019080519060200190610219929190610525565b506060820151816003015560808201518160040160006101000a81548173ffffffffffffffffffffffffffffffffffffffff021916908373ffffffffffffffffffffffffffffffffffffffff16021790555060a08201518160050160006101000a81548173ffffffffffffffffffffffffffffffffffffffff021916908373ffffffffffffffffffffffffffffffffffffffff16021790555050503373ffffffffffffffffffffffffffffffffffffffff167f71e4d22df116fdc915c131ee73a1b2033055d24fda3387bc49fed0c5f15a51eb856102f684610508565b60405161030492919061082b565b60405180910390a250505050565b60006064826001546103249190610924565b61032e91906108f3565b9050919050565b60008054906101000a900473ffffffffffffffffffffffffffffffffffffffff1681565b600560205280600052604060002060009150905080600001805461037c90610a08565b80601f01602080910402602001604051908101604052809291908181526020018280546103a890610a08565b80156103f55780601f106103ca576101008083540402835291602001916103f5565b820191906000526020600020905b8154815290600101906020018083116103d857829003601f168201915b50505050509080600101805461040a90610a08565b80601f016020809104026020016040519081016040528092919081815260200182805461043690610a08565b80156104835780601f1061045857610100808354040283529160200191610483565b820191906000526020600020905b81548152906001019060200180831161046657829003601f168201915b5050505050908060020160009054906101000a900460ff16908060030154905084565b60008054906101000a900473ffffffffffffffffffffffffffffffffffffffff1673ffffffffffffffffffffffffffffffffffffffff163373ffffffffffffffffffffffffffffffffffffffff16146104fe57600080fd5b8060018190555050565b6000670de0b6b3a76400008261051e9190610924565b9050919050565b82805461053190610a08565b90600052602060002090601f016020900481019282610553576000855561059a565b82601f1061056c57805160ff191683800117855561059a565b8280016001018555821561059a579182015b8281111561059957825182559160200191906001019061057e565b5b5090506105a791906105ab565b5090565b5b808211156105c45760008160009055506001016105ac565b5090565b60006105db6105d6846108a7565b610876565b9050828152602081018484840111156105f357600080fd5b6105fe8482856109c6565b509392505050565b60008135905061061581610b07565b92915050565b600082601f83011261062c57600080fd5b813561063c8482602086016105c8565b91505092915050565b60008135905061065481610b1e565b92915050565b60006020828403121561066c57600080fd5b600061067a84828501610606565b91505092915050565b6000806000806080858703121561069957600080fd5b600085013567ffffffffffffffff8111156106b357600080fd5b6106bf8782880161061b565b945050602085013567ffffffffffffffff8111156106dc57600080fd5b6106e88782880161061b565b935050604085013567ffffffffffffffff81111561070557600080fd5b6107118782880161061b565b925050606061072287828801610645565b91505092959194509250565b60006020828403121561074057600080fd5b600061074e84828501610645565b91505092915050565b6107608161097e565b82525050565b61076f81610990565b82525050565b6000610780826108d7565b61078a81856108e2565b935061079a8185602086016109d5565b6107a381610af6565b840191505092915050565b6107b7816109bc565b82525050565b60006020820190506107d26000830184610757565b92915050565b600060808201905081810360008301526107f28187610775565b905081810360208301526108068186610775565b90506108156040830185610766565b61082260608301846107ae565b95945050505050565b600060408201905081810360008301526108458185610775565b905061085460208301846107ae565b9392505050565b600060208201905061087060008301846107ae565b92915050565b6000604051905081810181811067ffffffffffffffff8211171561089d5761089c610ac7565b5b8060405250919050565b600067ffffffffffffffff8211156108c2576108c1610ac7565b5b601f19601f8301169050602081019050919050565b600081519050919050565b600082825260208201905092915050565b60006108fe826109bc565b9150610909836109bc565b92508261091957610918610a69565b5b828204905092915050565b600061092f826109bc565b915061093a836109bc565b9250817fffffffffffffffffffffffffffffffffffffffffffffffffffffffffffffffff048311821515161561097357610972610a3a565b5b828202905092915050565b60006109898261099c565b9050919050565b60008115159050919050565b600073ffffffffffffffffffffffffffffffffffffffff82169050919050565b6000819050919050565b82818337600083830152505050565b60005b838110156109f35780820151818401526020810190506109d8565b83811115610a02576000848401525b50505050565b60006002820490506001821680610a2057607f821691505b60208210811415610a3457610a33610a98565b5b50919050565b7f4e487b7100000000000000000000000000000000000000000000000000000000600052601160045260246000fd5b7f4e487b7100000000000000000000000000000000000000000000000000000000600052601260045260246000fd5b7f4e487b7100000000000000000000000000000000000000000000000000000000600052602260045260246000fd5b7f4e487b7100000000000000000000000000000000000000000000000000000000600052604160045260246000fd5b6000601f19601f8301169050919050565b610b108161097e565b8114610b1b57600080fd5b50565b610b27816109bc565b8114610b3257600080fd5b5056fea2646970667358221220f1e5f2b65bfb758a9d358e8a48a594e4a7340283536dab238a752b4467eb655d64736f6c63430008000033",
  "immutableReferences": {},
  "source": "// SPDX-License-Identifier: MIT\r\npragma solidity ^0.8.0;\r\n\r\nimport \"@openzeppelin/contracts/token/ERC20/IERC20.sol\";\r\n\r\ncontract Meli {\r\n  address public owner;\r\n  uint private secureAddPercent = 5;\r\n  address private noOne = address(0);\r\n  IERC20 private token;\r\n\r\n  struct User {\r\n    string name;\r\n    string contact;\r\n    bool updated;\r\n    uint total_product;\r\n    uint[] prducts;\r\n  }\r\n\r\n  struct Product {\r\n    string name;\r\n    string desc;\r\n    string section;\r\n    uint price;\r\n    address owner;\r\n    address reserved_by;\r\n  }\r\n\r\n  Product[] private products;\r\n  mapping(address => User) public users;\r\n\r\n  uint private _totalUsers;\r\n\r\n  event ProductPurchased(address indexed user, address owner, uint price);\r\n  event ProductAdded(address indexed owner, string name, uint price);\r\n\r\n  constructor(address _token) {\r\n    owner = msg.sender;\r\n    token = IERC20(_token);\r\n    _totalUsers = 0;\r\n  }\r\n\r\n  function setSecureAddPercent(uint percent) public isOwner {\r\n    secureAddPercent = percent;\r\n  }\r\n\r\n  function getSecureAddPercent() private view isOwner returns (uint) {\r\n    return secureAddPercent;\r\n  }\r\n\r\n  function __percentValue(uint _amount) public view returns (uint) {\r\n    return (secureAddPercent * _amount) / 100;\r\n  }\r\n\r\n  function __amount(uint _amount) private pure returns (uint) {\r\n    return _amount * (10 ** 18);\r\n  }\r\n\r\n  function AddProduct(\r\n    string memory name,\r\n    string memory desc,\r\n    string memory section,\r\n    uint price\r\n  ) public {\r\n    // transferTokens(address(this), __amount(price));\r\n    products.push(\r\n      Product(name, desc, section, __amount(price), msg.sender, noOne)\r\n    );\r\n    emit ProductAdded(msg.sender, name, __amount(price));\r\n  }\r\n\r\n  modifier isOwner() {\r\n    require(msg.sender == owner);\r\n    _;\r\n  }\r\n}\r\n",
  "sourcePath": "E:\\-\\Curso-dapp-react-solidity\\contracts\\Meli.sol",
  "compiler": {
    "name": "solc",
    "version": "0.8.0+commit.c7dfd78e.Emscripten.clang"
  },
  "schemaVersion": "3.4.16",
  "updatedAt": "2024-08-29T18:36:30.306Z",
  "devdoc": {
    "kind": "dev",
    "methods": {},
    "version": 1
  },
  "userdoc": {
    "kind": "user",
    "methods": {},
    "version": 1
  }
}