{
  "contractName": "Meli",
  "abi": [
    {
      "inputs": [
        {
          "internalType": "address",
          "name": "_token",
          "type": "address"
        }
      ],
      "stateMutability": "nonpayable",
      "type": "constructor"
    },
    {
      "anonymous": false,
      "inputs": [
        {
          "indexed": true,
          "internalType": "address",
          "name": "owner",
          "type": "address"
        },
        {
          "indexed": false,
          "internalType": "string",
          "name": "name",
          "type": "string"
        },
        {
          "indexed": false,
          "internalType": "uint256",
          "name": "price",
          "type": "uint256"
        }
      ],
      "name": "ProductAdded",
      "type": "event"
    },
    {
      "anonymous": false,
      "inputs": [
        {
          "indexed": true,
          "internalType": "address",
          "name": "user",
          "type": "address"
        },
        {
          "indexed": false,
          "internalType": "address",
          "name": "owner",
          "type": "address"
        },
        {
          "indexed": false,
          "internalType": "uint256",
          "name": "price",
          "type": "uint256"
        }
      ],
      "name": "ProductPurchased",
      "type": "event"
    },
    {
      "inputs": [],
      "name": "owner",
      "outputs": [
        {
          "internalType": "address",
          "name": "",
          "type": "address"
        }
      ],
      "stateMutability": "view",
      "type": "function",
      "constant": true
    },
    {
      "inputs": [
        {
          "internalType": "address",
          "name": "",
          "type": "address"
        }
      ],
      "name": "users",
      "outputs": [
        {
          "internalType": "string",
          "name": "name",
          "type": "string"
        },
        {
          "internalType": "string",
          "name": "contact",
          "type": "string"
        },
        {
          "internalType": "bool",
          "name": "updated",
          "type": "bool"
        },
        {
          "internalType": "uint256",
          "name": "total_product",
          "type": "uint256"
        }
      ],
      "stateMutability": "view",
      "type": "function",
      "constant": true
    },
    {
      "inputs": [
        {
          "internalType": "uint256",
          "name": "percent",
          "type": "uint256"
        }
      ],
      "name": "setSecureAddPercent",
      "outputs": [],
      "stateMutability": "nonpayable",
      "type": "function"
    },
    {
      "inputs": [
        {
          "internalType": "uint256",
          "name": "_amount",
          "type": "uint256"
        }
      ],
      "name": "__percentValue",
      "outputs": [
        {
          "internalType": "uint256",
          "name": "",
          "type": "uint256"
        }
      ],
      "stateMutability": "view",
      "type": "function",
      "constant": true
    },
    {
      "inputs": [
        {
          "internalType": "string",
          "name": "name",
          "type": "string"
        },
        {
          "internalType": "string",
          "name": "desc",
          "type": "string"
        },
        {
          "internalType": "string",
          "name": "section",
          "type": "string"
        },
        {
          "internalType": "uint256",
          "name": "price",
          "type": "uint256"
        }
      ],
      "name": "AddProduct",
      "outputs": [],
      "stateMutability": "nonpayable",
      "type": "function"
    },
    {
      "inputs": [
        {
          "internalType": "uint256",
          "name": "product_id",
          "type": "uint256"
        },
        {
          "internalType": "uint256",
          "name": "price",
          "type": "uint256"
        }
      ],
      "name": "updateProductPrice",
      "outputs": [],
      "stateMutability": "nonpayable",
      "type": "function"
    },
    {
      "inputs": [
        {
          "internalType": "string",
          "name": "contact",
          "type": "string"
        },
        {
          "internalType": "string",
          "name": "name",
          "type": "string"
        }
      ],
      "name": "updateUserContact",
      "outputs": [],
      "stateMutability": "nonpayable",
      "type": "function"
    },
    {
      "inputs": [
        {
          "internalType": "uint256",
          "name": "product_id",
          "type": "uint256"
        }
      ],
      "name": "buyProduct",
      "outputs": [],
      "stateMutability": "nonpayable",
      "type": "function"
    },
    {
      "inputs": [],
      "name": "totalUsers",
      "outputs": [
        {
          "internalType": "uint256",
          "name": "",
          "type": "uint256"
        }
      ],
      "stateMutability": "view",
      "type": "function",
      "constant": true
    },
    {
      "inputs": [
        {
          "internalType": "uint256",
          "name": "product_id",
          "type": "uint256"
        }
      ],
      "name": "getProduct",
      "outputs": [
        {
          "components": [
            {
              "internalType": "string",
              "name": "name",
              "type": "string"
            },
            {
              "internalType": "string",
              "name": "desc",
              "type": "string"
            },
            {
              "internalType": "string",
              "name": "section",
              "type": "string"
            },
            {
              "internalType": "uint256",
              "name": "price",
              "type": "uint256"
            },
            {
              "internalType": "address",
              "name": "owner",
              "type": "address"
            },
            {
              "internalType": "address",
              "name": "reserved_by",
              "type": "address"
            }
          ],
          "internalType": "struct Meli.Product",
          "name": "",
          "type": "tuple"
        }
      ],
      "stateMutability": "view",
      "type": "function",
      "constant": true
    },
    {
      "inputs": [
        {
          "internalType": "address",
          "name": "userAddress",
          "type": "address"
        }
      ],
      "name": "getUser",
      "outputs": [
        {
          "components": [
            {
              "internalType": "string",
              "name": "name",
              "type": "string"
            },
            {
              "internalType": "string",
              "name": "contact",
              "type": "string"
            },
            {
              "internalType": "bool",
              "name": "updated",
              "type": "bool"
            },
            {
              "internalType": "uint256",
              "name": "total_product",
              "type": "uint256"
            },
            {
              "internalType": "uint256[]",
              "name": "products",
              "type": "uint256[]"
            }
          ],
          "internalType": "struct Meli.User",
          "name": "",
          "type": "tuple"
        }
      ],
      "stateMutability": "view",
      "type": "function",
      "constant": true
    },
    {
      "inputs": [
        {
          "internalType": "address payable",
          "name": "account",
          "type": "address"
        }
      ],
      "name": "withdrawBNB",
      "outputs": [],
      "stateMutability": "nonpayable",
      "type": "function"
    },
    {
      "inputs": [
        {
          "internalType": "address",
          "name": "to",
          "type": "address"
        },
        {
          "internalType": "uint256",
          "name": "amount",
          "type": "uint256"
        }
      ],
      "name": "withdraw",
      "outputs": [],
      "stateMutability": "nonpayable",
      "type": "function"
    }
  ],
  "bytecode": "0x608060405260056001556000600260006101000a81548173ffffffffffffffffffffffffffffffffffffffff021916908373ffffffffffffffffffffffffffffffffffffffff1602179055503480156200005857600080fd5b506040516200257e3803806200257e83398181016040528101906200007e919062000125565b336000806101000a81548173ffffffffffffffffffffffffffffffffffffffff021916908373ffffffffffffffffffffffffffffffffffffffff16021790555080600360006101000a81548173ffffffffffffffffffffffffffffffffffffffff021916908373ffffffffffffffffffffffffffffffffffffffff1602179055506000600681905550506200019f565b6000815190506200011f8162000185565b92915050565b6000602082840312156200013857600080fd5b600062000148848285016200010e565b91505092915050565b60006200015e8262000165565b9050919050565b600073ffffffffffffffffffffffffffffffffffffffff82169050919050565b620001908162000151565b81146200019c57600080fd5b50565b6123cf80620001af6000396000f3fe608060405234801561001057600080fd5b50600436106100cf5760003560e01c80638da5cb5b1161008c578063b9db15b411610066578063b9db15b414610211578063bff1f9e114610241578063d43ca1771461025f578063f3fef3a31461027b576100cf565b80638da5cb5b146101a45780639c3bddb2146101c2578063a87430ba146101de576100cf565b80631c817796146100d45780635d6b601d146100f0578063621ec9cd146101205780636f77926b1461013c578063726094711461016c5780638642269e14610188575b600080fd5b6100ee60048036038101906100e9919061188f565b610297565b005b61010a6004803603810190610105919061193a565b6104af565b6040516101179190611f8b565b60405180910390f35b61013a60048036038101906101359190611823565b6104d2565b005b6101566004803603810190610151919061176c565b6105f3565b6040516101639190611f69565b60405180910390f35b61018660048036038101906101819190611795565b6107ed565b005b6101a2600480360381019061019d919061193a565b6108bf565b005b6101ac610b1b565b6040516101b99190611da0565b60405180910390f35b6101dc60048036038101906101d7919061198c565b610b3f565b005b6101f860048036038101906101f3919061176c565b610cd6565b6040516102089493929190611e44565b60405180910390f35b61022b6004803603810190610226919061193a565b610e23565b6040516102389190611f47565b60405180910390f35b6102496110f1565b6040516102569190611f8b565b60405180910390f35b6102796004803603810190610274919061193a565b6110fb565b005b610295600480360381019061029091906117be565b61115d565b005b6102b2306102ac6102a7846104af565b611271565b3361128e565b60046040518060c001604052808681526020018581526020018481526020016102da84611271565b81526020013373ffffffffffffffffffffffffffffffffffffffff168152602001600260009054906101000a900473ffffffffffffffffffffffffffffffffffffffff1673ffffffffffffffffffffffffffffffffffffffff168152509080600181540180825580915050600190039060005260206000209060060201600090919091909150600082015181600001908051906020019061037c929190611565565b506020820151816001019080519060200190610399929190611565565b5060408201518160020190805190602001906103b6929190611565565b506060820151816003015560808201518160040160006101000a81548173ffffffffffffffffffffffffffffffffffffffff021916908373ffffffffffffffffffffffffffffffffffffffff16021790555060a08201518160050160006101000a81548173ffffffffffffffffffffffffffffffffffffffff021916908373ffffffffffffffffffffffffffffffffffffffff16021790555050503373ffffffffffffffffffffffffffffffffffffffff167f71e4d22df116fdc915c131ee73a1b2033055d24fda3387bc49fed0c5f15a51eb8561049384611271565b6040516104a1929190611e97565b60405180910390a250505050565b60006064826001546104c191906120ff565b6104cb91906120ce565b9050919050565b600260009054906101000a900473ffffffffffffffffffffffffffffffffffffffff1673ffffffffffffffffffffffffffffffffffffffff163373ffffffffffffffffffffffffffffffffffffffff16141561052d57600080fd5b6000600560003373ffffffffffffffffffffffffffffffffffffffff1673ffffffffffffffffffffffffffffffffffffffff168152602001908152602001600020905082816001019080519060200190610588929190611565565b50818160000190805190602001906105a1929190611565565b508060020160009054906101000a900460ff166105d157600660008154809291906105cb90612227565b91905055505b60018160020160006101000a81548160ff021916908315150217905550505050565b6105fb6115eb565b600560008373ffffffffffffffffffffffffffffffffffffffff1673ffffffffffffffffffffffffffffffffffffffff1681526020019081526020016000206040518060a0016040529081600082018054610655906121f5565b80601f0160208091040260200160405190810160405280929190818152602001828054610681906121f5565b80156106ce5780601f106106a3576101008083540402835291602001916106ce565b820191906000526020600020905b8154815290600101906020018083116106b157829003601f168201915b505050505081526020016001820180546106e7906121f5565b80601f0160208091040260200160405190810160405280929190818152602001828054610713906121f5565b80156107605780601f1061073557610100808354040283529160200191610760565b820191906000526020600020905b81548152906001019060200180831161074357829003601f168201915b505050505081526020016002820160009054906101000a900460ff1615151515815260200160038201548152602001600482018054806020026020016040519081016040528092919081815260200182805480156107dd57602002820191906000526020600020905b8154815260200190600101908083116107c9575b5050505050815250509050919050565b60008054906101000a900473ffffffffffffffffffffffffffffffffffffffff1673ffffffffffffffffffffffffffffffffffffffff163373ffffffffffffffffffffffffffffffffffffffff161461084557600080fd5b60008173ffffffffffffffffffffffffffffffffffffffff164760405161086b90611d8b565b60006040518083038185875af1925050503d80600081146108a8576040519150601f19603f3d011682016040523d82523d6000602084013e6108ad565b606091505b50509050806108bb57600080fd5b5050565b6000600482815481106108fb577f4e487b7100000000000000000000000000000000000000000000000000000000600052603260045260246000fd5b906000526020600020906006020190508060040160009054906101000a900473ffffffffffffffffffffffffffffffffffffffff1673ffffffffffffffffffffffffffffffffffffffff163373ffffffffffffffffffffffffffffffffffffffff16141561099e576040517f08c379a000000000000000000000000000000000000000000000000000000000815260040161099590611ec7565b60405180910390fd5b6109d18160040160009054906101000a900473ffffffffffffffffffffffffffffffffffffffff1682600301543361128e565b6000600560003373ffffffffffffffffffffffffffffffffffffffff1673ffffffffffffffffffffffffffffffffffffffff16815260200190815260200160002090506001816003016000828254610a299190612078565b9250508190555080600401839080600181540180825580915050600190039060005260206000200160009091909190915055338260050160006101000a81548173ffffffffffffffffffffffffffffffffffffffff021916908373ffffffffffffffffffffffffffffffffffffffff1602179055503373ffffffffffffffffffffffffffffffffffffffff167f96ed2ea4d67ab6369f0e0da43454549a60ae55af2704de2bdc1cdc0221af01e88360040160009054906101000a900473ffffffffffffffffffffffffffffffffffffffff168460030154604051610b0e929190611e1b565b60405180910390a2505050565b60008054906101000a900473ffffffffffffffffffffffffffffffffffffffff1681565b600260009054906101000a900473ffffffffffffffffffffffffffffffffffffffff1673ffffffffffffffffffffffffffffffffffffffff163373ffffffffffffffffffffffffffffffffffffffff161415610b9a57600080fd5b600060048381548110610bd6577f4e487b7100000000000000000000000000000000000000000000000000000000600052603260045260246000fd5b906000526020600020906006020190508060040160009054906101000a900473ffffffffffffffffffffffffffffffffffffffff1673ffffffffffffffffffffffffffffffffffffffff163373ffffffffffffffffffffffffffffffffffffffff1614610c4257600080fd5b600260009054906101000a900473ffffffffffffffffffffffffffffffffffffffff1673ffffffffffffffffffffffffffffffffffffffff168160050160009054906101000a900473ffffffffffffffffffffffffffffffffffffffff1673ffffffffffffffffffffffffffffffffffffffff1614610cc057600080fd5b610cc982611271565b8160030181905550505050565b6005602052806000526040600020600091509050806000018054610cf9906121f5565b80601f0160208091040260200160405190810160405280929190818152602001828054610d25906121f5565b8015610d725780601f10610d4757610100808354040283529160200191610d72565b820191906000526020600020905b815481529060010190602001808311610d5557829003601f168201915b505050505090806001018054610d87906121f5565b80601f0160208091040260200160405190810160405280929190818152602001828054610db3906121f5565b8015610e005780601f10610dd557610100808354040283529160200191610e00565b820191906000526020600020905b815481529060010190602001808311610de357829003601f168201915b5050505050908060020160009054906101000a900460ff16908060030154905084565b610e2b61161c565b60048281548110610e65577f4e487b7100000000000000000000000000000000000000000000000000000000600052603260045260246000fd5b90600052602060002090600602016040518060c0016040529081600082018054610e8e906121f5565b80601f0160208091040260200160405190810160405280929190818152602001828054610eba906121f5565b8015610f075780601f10610edc57610100808354040283529160200191610f07565b820191906000526020600020905b815481529060010190602001808311610eea57829003601f168201915b50505050508152602001600182018054610f20906121f5565b80601f0160208091040260200160405190810160405280929190818152602001828054610f4c906121f5565b8015610f995780601f10610f6e57610100808354040283529160200191610f99565b820191906000526020600020905b815481529060010190602001808311610f7c57829003601f168201915b50505050508152602001600282018054610fb2906121f5565b80601f0160208091040260200160405190810160405280929190818152602001828054610fde906121f5565b801561102b5780601f106110005761010080835404028352916020019161102b565b820191906000526020600020905b81548152906001019060200180831161100e57829003601f168201915b50505050508152602001600382015481526020016004820160009054906101000a900473ffffffffffffffffffffffffffffffffffffffff1673ffffffffffffffffffffffffffffffffffffffff1673ffffffffffffffffffffffffffffffffffffffff1681526020016005820160009054906101000a900473ffffffffffffffffffffffffffffffffffffffff1673ffffffffffffffffffffffffffffffffffffffff1673ffffffffffffffffffffffffffffffffffffffff16815250509050919050565b6000600654905090565b60008054906101000a900473ffffffffffffffffffffffffffffffffffffffff1673ffffffffffffffffffffffffffffffffffffffff163373ffffffffffffffffffffffffffffffffffffffff161461115357600080fd5b8060018190555050565b60008054906101000a900473ffffffffffffffffffffffffffffffffffffffff1673ffffffffffffffffffffffffffffffffffffffff163373ffffffffffffffffffffffffffffffffffffffff16146111b557600080fd5b600360009054906101000a900473ffffffffffffffffffffffffffffffffffffffff1673ffffffffffffffffffffffffffffffffffffffff1663a9059cbb83836040518363ffffffff1660e01b8152600401611212929190611e1b565b602060405180830381600087803b15801561122c57600080fd5b505af1158015611240573d6000803e3d6000fd5b505050506040513d601f19601f8201168201806040525081019061126491906117fa565b61126d57600080fd5b5050565b6000670de0b6b3a76400008261128791906120ff565b9050919050565b600360009054906101000a900473ffffffffffffffffffffffffffffffffffffffff1673ffffffffffffffffffffffffffffffffffffffff166370a08231826040518263ffffffff1660e01b81526004016112e99190611da0565b60206040518083038186803b15801561130157600080fd5b505afa158015611315573d6000803e3d6000fd5b505050506040513d601f19601f820116820180604052508101906113399190611963565b82111561137b576040517f08c379a000000000000000000000000000000000000000000000000000000000815260040161137290611f07565b60405180910390fd5b81600360009054906101000a900473ffffffffffffffffffffffffffffffffffffffff1673ffffffffffffffffffffffffffffffffffffffff1663dd62ed3e83306040518363ffffffff1660e01b81526004016113d9929190611dbb565b60206040518083038186803b1580156113f157600080fd5b505afa158015611405573d6000803e3d6000fd5b505050506040513d601f19601f820116820180604052508101906114299190611963565b101561146a576040517f08c379a000000000000000000000000000000000000000000000000000000000815260040161146190611ee7565b60405180910390fd5b6000600360009054906101000a900473ffffffffffffffffffffffffffffffffffffffff1673ffffffffffffffffffffffffffffffffffffffff166323b872dd8386866040518463ffffffff1660e01b81526004016114cb93929190611de4565b602060405180830381600087803b1580156114e557600080fd5b505af11580156114f9573d6000803e3d6000fd5b505050506040513d601f19601f8201168201806040525081019061151d91906117fa565b90508061155f576040517f08c379a000000000000000000000000000000000000000000000000000000000815260040161155690611f27565b60405180910390fd5b50505050565b828054611571906121f5565b90600052602060002090601f01602090048101928261159357600085556115da565b82601f106115ac57805160ff19168380011785556115da565b828001600101855582156115da579182015b828111156115d95782518255916020019190600101906115be565b5b5090506115e7919061167e565b5090565b6040518060a00160405280606081526020016060815260200160001515815260200160008152602001606081525090565b6040518060c0016040528060608152602001606081526020016060815260200160008152602001600073ffffffffffffffffffffffffffffffffffffffff168152602001600073ffffffffffffffffffffffffffffffffffffffff1681525090565b5b8082111561169757600081600090555060010161167f565b5090565b60006116ae6116a984611fd7565b611fa6565b9050828152602081018484840111156116c657600080fd5b6116d18482856121b3565b509392505050565b6000813590506116e88161233d565b92915050565b6000813590506116fd81612354565b92915050565b6000815190506117128161236b565b92915050565b600082601f83011261172957600080fd5b813561173984826020860161169b565b91505092915050565b60008135905061175181612382565b92915050565b60008151905061176681612382565b92915050565b60006020828403121561177e57600080fd5b600061178c848285016116d9565b91505092915050565b6000602082840312156117a757600080fd5b60006117b5848285016116ee565b91505092915050565b600080604083850312156117d157600080fd5b60006117df858286016116d9565b92505060206117f085828601611742565b9150509250929050565b60006020828403121561180c57600080fd5b600061181a84828501611703565b91505092915050565b6000806040838503121561183657600080fd5b600083013567ffffffffffffffff81111561185057600080fd5b61185c85828601611718565b925050602083013567ffffffffffffffff81111561187957600080fd5b61188585828601611718565b9150509250929050565b600080600080608085870312156118a557600080fd5b600085013567ffffffffffffffff8111156118bf57600080fd5b6118cb87828801611718565b945050602085013567ffffffffffffffff8111156118e857600080fd5b6118f487828801611718565b935050604085013567ffffffffffffffff81111561191157600080fd5b61191d87828801611718565b925050606061192e87828801611742565b91505092959194509250565b60006020828403121561194c57600080fd5b600061195a84828501611742565b91505092915050565b60006020828403121561197557600080fd5b600061198384828501611757565b91505092915050565b6000806040838503121561199f57600080fd5b60006119ad85828601611742565b92505060206119be85828601611742565b9150509250929050565b60006119d48383611d6d565b60208301905092915050565b6119e981612159565b82525050565b6119f881612159565b82525050565b6000611a0982612017565b611a13818561203a565b9350611a1e83612007565b8060005b83811015611a4f578151611a3688826119c8565b9750611a418361202d565b925050600181019050611a22565b5085935050505092915050565b611a658161217d565b82525050565b611a748161217d565b82525050565b6000611a8582612022565b611a8f8185612056565b9350611a9f8185602086016121c2565b611aa88161232c565b840191505092915050565b6000611abe82612022565b611ac88185612067565b9350611ad88185602086016121c2565b611ae18161232c565b840191505092915050565b6000611af9602083612067565b91507f596f752063616e6e6f742062757920796f7572206f776e2070726f64756374736000830152602082019050919050565b6000611b39602583612067565b91507f496e737566696369656e7420616c6c6f77656e636520746f206d616b6520726560008301527f73657276650000000000000000000000000000000000000000000000000000006020830152604082019050919050565b6000611b9f60008361204b565b9150600082019050919050565b6000611bb9602383612067565b91507f496e737566696369656e7420746f6b656e7320746f206d616b65207472616e7360008301527f66657200000000000000000000000000000000000000000000000000000000006020830152604082019050919050565b6000611c1f600883612067565b91507f4e6f742073656e740000000000000000000000000000000000000000000000006000830152602082019050919050565b600060c0830160008301518482036000860152611c6f8282611a7a565b91505060208301518482036020860152611c898282611a7a565b91505060408301518482036040860152611ca38282611a7a565b9150506060830151611cb86060860182611d6d565b506080830151611ccb60808601826119e0565b5060a0830151611cde60a08601826119e0565b508091505092915050565b600060a0830160008301518482036000860152611d068282611a7a565b91505060208301518482036020860152611d208282611a7a565b9150506040830151611d356040860182611a5c565b506060830151611d486060860182611d6d565b5060808301518482036080860152611d6082826119fe565b9150508091505092915050565b611d76816121a9565b82525050565b611d85816121a9565b82525050565b6000611d9682611b92565b9150819050919050565b6000602082019050611db560008301846119ef565b92915050565b6000604082019050611dd060008301856119ef565b611ddd60208301846119ef565b9392505050565b6000606082019050611df960008301866119ef565b611e0660208301856119ef565b611e136040830184611d7c565b949350505050565b6000604082019050611e3060008301856119ef565b611e3d6020830184611d7c565b9392505050565b60006080820190508181036000830152611e5e8187611ab3565b90508181036020830152611e728186611ab3565b9050611e816040830185611a6b565b611e8e6060830184611d7c565b95945050505050565b60006040820190508181036000830152611eb18185611ab3565b9050611ec06020830184611d7c565b9392505050565b60006020820190508181036000830152611ee081611aec565b9050919050565b60006020820190508181036000830152611f0081611b2c565b9050919050565b60006020820190508181036000830152611f2081611bac565b9050919050565b60006020820190508181036000830152611f4081611c12565b9050919050565b60006020820190508181036000830152611f618184611c52565b905092915050565b60006020820190508181036000830152611f838184611ce9565b905092915050565b6000602082019050611fa06000830184611d7c565b92915050565b6000604051905081810181811067ffffffffffffffff82111715611fcd57611fcc6122fd565b5b8060405250919050565b600067ffffffffffffffff821115611ff257611ff16122fd565b5b601f19601f8301169050602081019050919050565b6000819050602082019050919050565b600081519050919050565b600081519050919050565b6000602082019050919050565b600082825260208201905092915050565b600081905092915050565b600082825260208201905092915050565b600082825260208201905092915050565b6000612083826121a9565b915061208e836121a9565b9250827fffffffffffffffffffffffffffffffffffffffffffffffffffffffffffffffff038211156120c3576120c2612270565b5b828201905092915050565b60006120d9826121a9565b91506120e4836121a9565b9250826120f4576120f361229f565b5b828204905092915050565b600061210a826121a9565b9150612115836121a9565b9250817fffffffffffffffffffffffffffffffffffffffffffffffffffffffffffffffff048311821515161561214e5761214d612270565b5b828202905092915050565b600061216482612189565b9050919050565b600061217682612189565b9050919050565b60008115159050919050565b600073ffffffffffffffffffffffffffffffffffffffff82169050919050565b6000819050919050565b82818337600083830152505050565b60005b838110156121e05780820151818401526020810190506121c5565b838111156121ef576000848401525b50505050565b6000600282049050600182168061220d57607f821691505b60208210811415612221576122206122ce565b5b50919050565b6000612232826121a9565b91507fffffffffffffffffffffffffffffffffffffffffffffffffffffffffffffffff82141561226557612264612270565b5b600182019050919050565b7f4e487b7100000000000000000000000000000000000000000000000000000000600052601160045260246000fd5b7f4e487b7100000000000000000000000000000000000000000000000000000000600052601260045260246000fd5b7f4e487b7100000000000000000000000000000000000000000000000000000000600052602260045260246000fd5b7f4e487b7100000000000000000000000000000000000000000000000000000000600052604160045260246000fd5b6000601f19601f8301169050919050565b61234681612159565b811461235157600080fd5b50565b61235d8161216b565b811461236857600080fd5b50565b6123748161217d565b811461237f57600080fd5b50565b61238b816121a9565b811461239657600080fd5b5056fea26469706673582212202e44b446b95f8fdbf525813bd076bac5e9144d93084c8ec2cc02bd2669454a3b64736f6c63430008000033",
  "immutableReferences": {},
  "source": "// SPDX-License-Identifier: MIT\r\npragma solidity ^0.8.0;\r\n\r\nimport \"@openzeppelin/contracts/token/ERC20/IERC20.sol\";\r\n\r\ncontract Meli {\r\n  address public owner;\r\n  uint private secureAddPercent = 5;\r\n  address private noOne = address(0);\r\n  IERC20 private token;\r\n\r\n  struct User {\r\n    string name;\r\n    string contact;\r\n    bool updated;\r\n    uint total_product;\r\n    uint[] products;\r\n  }\r\n\r\n  struct Product {\r\n    string name;\r\n    string desc;\r\n    string section;\r\n    uint price;\r\n    address owner;\r\n    address reserved_by;\r\n  }\r\n\r\n  Product[] private products;\r\n  mapping(address => User) public users;\r\n\r\n  uint private _totalUsers;\r\n\r\n  event ProductPurchased(address indexed user, address owner, uint price);\r\n  event ProductAdded(address indexed owner, string name, uint price);\r\n\r\n  constructor(address _token) {\r\n    owner = msg.sender;\r\n    token = IERC20(_token);\r\n    _totalUsers = 0;\r\n  }\r\n\r\n  function setSecureAddPercent(uint percent) public isOwner {\r\n    secureAddPercent = percent;\r\n  }\r\n\r\n  function getSecureAddPercent() private view isOwner returns (uint) {\r\n    return secureAddPercent;\r\n  }\r\n\r\n  function __percentValue(uint _amount) public view returns (uint) {\r\n    return (secureAddPercent * _amount) / 100;\r\n  }\r\n\r\n  function __amount(uint _amount) private pure returns (uint) {\r\n    return _amount * (10 ** 18);\r\n  }\r\n\r\n  function AddProduct(\r\n    string memory name,\r\n    string memory desc,\r\n    string memory section,\r\n    uint price\r\n  ) public {\r\n    transferTokens(address(this), __amount(__percentValue(price)), msg.sender);\r\n\r\n    products.push(\r\n      Product(name, desc, section, __amount(price), msg.sender, noOne)\r\n    );\r\n    emit ProductAdded(msg.sender, name, __amount(price));\r\n  }\r\n\r\n  function transferTokens(address _owner, uint _price, address _buyer) private {\r\n    require(\r\n      _price <= token.balanceOf(_buyer),\r\n      \"Insuficient tokens to make transfer\"\r\n    );\r\n    require(\r\n      token.allowance(_buyer, address(this)) >= _price,\r\n      \"Insuficient allowence to make reserve\"\r\n    );\r\n\r\n    bool sent = token.transferFrom(_buyer, _owner, _price);\r\n    require(sent, \"Not sent\");\r\n  }\r\n\r\n  function updateProductPrice(uint product_id, uint price) public {\r\n    require(msg.sender != noOne);\r\n    Product storage product = products[product_id];\r\n    require(msg.sender == product.owner);\r\n    require(product.reserved_by == noOne);\r\n    product.price = __amount(price);\r\n  }\r\n\r\n  function updateUserContact(string memory contact, string memory name) public {\r\n    require(msg.sender != noOne);\r\n    User storage user = users[msg.sender];\r\n    user.contact = contact;\r\n    user.name = name;\r\n\r\n    if (!user.updated) _totalUsers++;\r\n\r\n    user.updated = true;\r\n  }\r\n\r\n  function buyProduct(uint product_id) public {\r\n    Product storage product = products[product_id];\r\n    require(msg.sender != product.owner, \"You cannot buy your own products\");\r\n    transferTokens(product.owner, product.price, msg.sender);\r\n    User storage buyer = users[msg.sender];\r\n    buyer.total_product += 1;\r\n    buyer.products.push(product_id);\r\n    product.reserved_by = msg.sender;\r\n\r\n    emit ProductPurchased(msg.sender, product.owner, product.price);\r\n  }\r\n\r\n  function totalUsers() public view returns (uint) {\r\n    return _totalUsers;\r\n  }\r\n\r\n  function getProduct(uint product_id) public view returns (Product memory) {\r\n    return products[product_id];\r\n  }\r\n\r\n  function getUser(address userAddress) public view returns (User memory) {\r\n    return users[userAddress];\r\n  }\r\n\r\n  function withdrawBNB(address payable account) external isOwner {\r\n    (bool success, ) = account.call{ value: address(this).balance }(\"\");\r\n    require(success);\r\n  }\r\n\r\n  function withdraw(address to, uint256 amount) external isOwner {\r\n    require(token.transfer(to, amount));\r\n  }\r\n\r\n  modifier isOwner() {\r\n    require(msg.sender == owner);\r\n    _;\r\n  }\r\n}\r\n",
  "sourcePath": "E:\\-\\Curso-dapp-react-solidity\\contracts\\Meli.sol",
  "compiler": {
    "name": "solc",
    "version": "0.8.0+commit.c7dfd78e.Emscripten.clang"
  },
  "schemaVersion": "3.4.16",
  "updatedAt": "2024-09-06T17:56:23.648Z",
  "networkType": "ethereum",
  "devdoc": {
    "kind": "dev",
    "methods": {},
    "version": 1
  },
  "userdoc": {
    "kind": "user",
    "methods": {},
    "version": 1
  }
}